{
  "contractName": "ItemStore",
  "abi": [
    {
      "inputs": [
        {
          "components": [
            {
              "internalType": "string",
              "name": "name",
              "type": "string"
            },
            {
              "internalType": "int256",
              "name": "value",
              "type": "int256"
            }
          ],
          "internalType": "struct ItemStore.Item",
          "name": "item",
          "type": "tuple"
        }
      ],
      "name": "addItem",
      "outputs": [],
      "stateMutability": "nonpayable",
      "type": "function"
    }
  ],
  "bytecode": "0x608060405234801561001057600080fd5b5061042d806100206000396000f3fe608060405234801561001057600080fd5b506004361061002b5760003560e01c8063aa2974b114610030575b600080fd5b61004a6004803603810190610045919061034d565b61004c565b005b600081908060018154018082558091505060019003906000526020600020906002020160009091909190915060008201518160000190805190602001906100949291906100a4565b5060208201518160010155505050565b8280546100b0906103c5565b90600052602060002090601f0160209004810192826100d25760008555610119565b82601f106100eb57805160ff1916838001178555610119565b82800160010185558215610119579182015b828111156101185782518255916020019190600101906100fd565b5b509050610126919061012a565b5090565b5b8082111561014357600081600090555060010161012b565b5090565b6000604051905090565b600080fd5b600080fd5b600080fd5b6000601f19601f8301169050919050565b7f4e487b7100000000000000000000000000000000000000000000000000000000600052604160045260246000fd5b6101a982610160565b810181811067ffffffffffffffff821117156101c8576101c7610171565b5b80604052505050565b60006101db610147565b90506101e782826101a0565b919050565b600080fd5b600080fd5b600080fd5b600067ffffffffffffffff82111561021657610215610171565b5b61021f82610160565b9050602081019050919050565b82818337600083830152505050565b600061024e610249846101fb565b6101d1565b90508281526020810184848401111561026a576102696101f6565b5b61027584828561022c565b509392505050565b600082601f830112610292576102916101f1565b5b81356102a284826020860161023b565b91505092915050565b6000819050919050565b6102be816102ab565b81146102c957600080fd5b50565b6000813590506102db816102b5565b92915050565b6000604082840312156102f7576102f661015b565b5b61030160406101d1565b9050600082013567ffffffffffffffff811115610321576103206101ec565b5b61032d8482850161027d565b6000830152506020610341848285016102cc565b60208301525092915050565b60006020828403121561036357610362610151565b5b600082013567ffffffffffffffff81111561038157610380610156565b5b61038d848285016102e1565b91505092915050565b7f4e487b7100000000000000000000000000000000000000000000000000000000600052602260045260246000fd5b600060028204905060018216806103dd57607f821691505b602082108114156103f1576103f0610396565b5b5091905056fea2646970667358221220bef74cf38c8a89bbbb9d6fb3fb1370dd80f81240d0c0ee0e89221d5e8bd971ab64736f6c634300080b0033",
  "immutableReferences": {},
  "source": "// SPDX-License-Identifier: MIT\npragma solidity ^0.8.11;\n\ncontract ItemStore {\n  struct Item {\n    string name;\n    int value;\n  }\n\n  Item[] private Items;\n\n  function addItem(Item memory item) public {\n    Items.push(item);\n  }\n}",
  "sourcePath": "/home/uk/workspace/record-generator/blockchain/contracts/ItemStore.sol",
  "compiler": {
    "name": "solc",
    "version": "0.8.11+commit.d7f03943.Emscripten.clang"
  },
  "schemaVersion": "3.4.4",
  "updatedAt": "2024-06-19T07:43:43.530Z",
  "devdoc": {
    "kind": "dev",
    "methods": {},
    "version": 1
  },
  "userdoc": {
    "kind": "user",
    "methods": {},
    "version": 1
  }
}